{
    "contractName": "ICO",
    "abi": [
        {
            "inputs": [
                {
                    "internalType": "address",
                    "name": "_token",
                    "type": "address"
                }
            ],
            "stateMutability": "payable",
            "type": "constructor"
        },
        {
            "inputs": [],
            "name": "EnforcedPause",
            "type": "error"
        },
        {
            "inputs": [],
            "name": "ExpectedPause",
            "type": "error"
        },
        {
            "inputs": [
                {
                    "internalType": "address",
                    "name": "owner",
                    "type": "address"
                }
            ],
            "name": "OwnableInvalidOwner",
            "type": "error"
        },
        {
            "inputs": [
                {
                    "internalType": "address",
                    "name": "account",
                    "type": "address"
                }
            ],
            "name": "OwnableUnauthorizedAccount",
            "type": "error"
        },
        {
            "inputs": [],
            "name": "ReentrancyGuardReentrantCall",
            "type": "error"
        },
        {
            "anonymous": false,
            "inputs": [
                {
                    "indexed": true,
                    "internalType": "address",
                    "name": "previousOwner",
                    "type": "address"
                },
                {
                    "indexed": true,
                    "internalType": "address",
                    "name": "newOwner",
                    "type": "address"
                }
            ],
            "name": "OwnershipTransferred",
            "type": "event"
        },
        {
            "anonymous": false,
            "inputs": [
                {
                    "indexed": false,
                    "internalType": "address",
                    "name": "account",
                    "type": "address"
                }
            ],
            "name": "Paused",
            "type": "event"
        },
        {
            "anonymous": false,
            "inputs": [
                {
                    "indexed": false,
                    "internalType": "address",
                    "name": "account",
                    "type": "address"
                }
            ],
            "name": "Unpaused",
            "type": "event"
        },
        {
            "inputs": [
                {
                    "components": [
                        {
                            "internalType": "address",
                            "name": "userAddress",
                            "type": "address"
                        },
                        {
                            "internalType": "uint256",
                            "name": "amount",
                            "type": "uint256"
                        }
                    ],
                    "internalType": "struct ICO.UserData[]",
                    "name": "_usersData",
                    "type": "tuple[]"
                }
            ],
            "name": "addTuples",
            "outputs": [
                {
                    "internalType": "bool",
                    "name": "",
                    "type": "bool"
                }
            ],
            "stateMutability": "nonpayable",
            "type": "function"
        },
        {
            "inputs": [
                {
                    "components": [
                        {
                            "internalType": "address",
                            "name": "userAddress",
                            "type": "address"
                        },
                        {
                            "internalType": "uint256",
                            "name": "amount",
                            "type": "uint256"
                        }
                    ],
                    "internalType": "struct ICO.UserData[]",
                    "name": "_usersData",
                    "type": "tuple[]"
                }
            ],
            "name": "addUserData",
            "outputs": [
                {
                    "internalType": "bool",
                    "name": "",
                    "type": "bool"
                }
            ],
            "stateMutability": "nonpayable",
            "type": "function"
        },
        {
            "inputs": [
                {
                    "internalType": "uint256",
                    "name": "_amount",
                    "type": "uint256"
                }
            ],
            "name": "claim",
            "outputs": [],
            "stateMutability": "nonpayable",
            "type": "function"
        },
        {
            "inputs": [
                {
                    "internalType": "uint256",
                    "name": "_amount",
                    "type": "uint256"
                }
            ],
            "name": "claimLoop",
            "outputs": [],
            "stateMutability": "nonpayable",
            "type": "function"
        },
        {
            "inputs": [],
            "name": "owner",
            "outputs": [
                {
                    "internalType": "address",
                    "name": "",
                    "type": "address"
                }
            ],
            "stateMutability": "view",
            "type": "function"
        },
        {
            "inputs": [],
            "name": "pause",
            "outputs": [],
            "stateMutability": "nonpayable",
            "type": "function"
        },
        {
            "inputs": [],
            "name": "paused",
            "outputs": [
                {
                    "internalType": "bool",
                    "name": "",
                    "type": "bool"
                }
            ],
            "stateMutability": "view",
            "type": "function"
        },
        {
            "inputs": [],
            "name": "renounceOwnership",
            "outputs": [],
            "stateMutability": "nonpayable",
            "type": "function"
        },
        {
            "inputs": [],
            "name": "token",
            "outputs": [
                {
                    "internalType": "contract IERC20",
                    "name": "",
                    "type": "address"
                }
            ],
            "stateMutability": "view",
            "type": "function"
        },
        {
            "inputs": [
                {
                    "internalType": "address",
                    "name": "newOwner",
                    "type": "address"
                }
            ],
            "name": "transferOwnership",
            "outputs": [],
            "stateMutability": "nonpayable",
            "type": "function"
        },
        {
            "inputs": [],
            "name": "unpause",
            "outputs": [],
            "stateMutability": "nonpayable",
            "type": "function"
        },
        {
            "inputs": [
                {
                    "internalType": "address",
                    "name": "",
                    "type": "address"
                }
            ],
            "name": "userAmount",
            "outputs": [
                {
                    "internalType": "uint256",
                    "name": "",
                    "type": "uint256"
                }
            ],
            "stateMutability": "view",
            "type": "function"
        },
        {
            "inputs": [
                {
                    "internalType": "uint256",
                    "name": "",
                    "type": "uint256"
                }
            ],
            "name": "usersData",
            "outputs": [
                {
                    "internalType": "address",
                    "name": "userAddress",
                    "type": "address"
                },
                {
                    "internalType": "uint256",
                    "name": "amount",
                    "type": "uint256"
                }
            ],
            "stateMutability": "view",
            "type": "function"
        }
    ],
    "bytecode": "6080601f610ac138819003918201601f19168301916001600160401b0383118484101760d75780849260209460405283398101031260d357516001600160a01b0381169081900360d357331560c0575f8054604051929133906001600160a01b038316907f8be0079c531659141344cd1fd0a4f28419497f9722a3daafe3b4186f6b6457e09080a36001600160a81b0319163360ff60a01b1916175f5560018055600480546001600160a01b0319169190911790556109d590816100ec8239f35b631e4fbdf760e01b5f525f60045260245ffd5b5f80fd5b634e487b7160e01b5f52604160045260245ffdfe60806040526004361015610011575f80fd5b5f3560e01c8063379607f5146105f35780633f4ba83a1461058757806359ab2ddc146103e15780635c975abb146103bd578063715018a614610366578063792f841b146102c25780638456cb59146102625780638905c274146102165780638da5cb5b146101ef578063e1ad418e146101b7578063f2693cf014610159578063f2fde38b146100d45763fc0c546a146100a8575f80fd5b346100d0575f3660031901126100d0576004546040516001600160a01b039091168152602090f35b5f80fd5b346100d05760203660031901126100d0576100ed610719565b6100f5610979565b6001600160a01b03168015610146575f80546001600160a01b03198116831782556001600160a01b0316907f8be0079c531659141344cd1fd0a4f28419497f9722a3daafe3b4186f6b6457e09080a3005b631e4fbdf760e01b5f525f60045260245ffd5b346100d0576101673661072f565b5f5b81518110156101ac576001906001600160a01b036101878285610928565b51511660206101968386610928565b510151905f52600360205260405f205501610169565b602060405160018152f35b346100d05760203660031901126100d0576001600160a01b036101d8610719565b165f526003602052602060405f2054604051908152f35b346100d0575f3660031901126100d0575f546040516001600160a01b039091168152602090f35b346100d05760203660031901126100d0576004356002548110156100d05761023d90610802565b508054600190910154604080516001600160a01b039093168352602083019190915290f35b346100d0575f3660031901126100d05761027a610979565b61028261093c565b5f805460ff60a01b1916600160a01b1790556040513381527f62e78cea01bee320cd4e420270b5ea74000d11b0c9f74754ebdbfc544b05a25890602090a1005b346100d0576102d03661072f565b5f5b81518110156101ac576102e58183610928565b5190600254680100000000000000008110156103525780600161030b9201600255610802565b61033f57825181546001600160a01b0319166001600160a01b039190911617815560209290920151600192830155016102d2565b634e487b7160e01b5f525f60045260245ffd5b634e487b7160e01b5f52604160045260245ffd5b346100d0575f3660031901126100d05761037e610979565b5f80546001600160a01b0319811682556001600160a01b03167f8be0079c531659141344cd1fd0a4f28419497f9722a3daafe3b4186f6b6457e08280a3005b346100d0575f3660031901126100d057602060ff5f5460a01c166040519015158152f35b346100d05760203660031901126100d0576004356103fd61093c565b610405610959565b6024602060018060a01b0360045416604051928380926370a0823160e01b82523060048301525afa801561053f5782905f90610551575b61044892501015610832565b5f5b60025481101561054a5761045d81610802565b50546001600160a01b0316600161047383610802565b500154903314610486575060010161044a565b80836104b260016104a86020966104a35f996104f0981015610873565b610802565b50019182546108b1565b90556004805460405163a9059cbb60e01b8152339281019290925260248201929092529384926001600160a01b039092169183919082906044820190565b03925af1801561053f5761050b915f91610511575b506108ea565b60018055005b610532915060203d8111610538575b61052a81836106f7565b8101906108d2565b82610505565b503d610520565b6040513d5f823e3d90fd5b505061050b565b50506020813d60201161057f575b8161056c602093836106f7565b810103126100d05781610448915161043c565b3d915061055f565b346100d0575f3660031901126100d05761059f610979565b5f5460ff8160a01c16156105e45760ff60a01b19165f556040513381527f5db9ee0a495bf2e6ff9c91a7834c1ba4fdd244a5e8aa4e537bd38aeae4b073aa90602090a1005b638dfc202b60e01b5f5260045ffd5b346100d05760203660031901126100d057602460043561061161093c565b610619610959565b602060018060a01b0360045416604051938480926370a0823160e01b82523060048301525afa91821561053f575f926106c1575b5061068e816106616020935f951015610832565b338452600383526106788160408620541015610873565b33845260038352604084206104b28282546108b1565b03925af1801561053f5761050b915f916106a857506108ea565b610532915060203d6020116105385761052a81836106f7565b91506020823d6020116106ef575b816106dc602093836106f7565b810103126100d05790519061068e61064d565b3d91506106cf565b90601f8019910116810190811067ffffffffffffffff82111761035257604052565b600435906001600160a01b03821682036100d057565b60206003198201126100d05760043567ffffffffffffffff81116100d057816023820112156100d05780600401359067ffffffffffffffff8211610352576040519261078160208460051b01856106f7565b8284526024602085019360061b830101918183116100d057602401925b8284106107ac575050505090565b6040848303126100d057604051906040820182811067ffffffffffffffff821117610352576040528435906001600160a01b03821682036100d0578260209260409452828701358382015281520193019261079e565b60025481101561081e5760025f5260205f209060011b01905f90565b634e487b7160e01b5f52603260045260245ffd5b1561083957565b60405162461bcd60e51b815260206004820152601260248201527149434f2062616c616e6365206973206c6f7760701b6044820152606490fd5b1561087a57565b60405162461bcd60e51b815260206004820152600f60248201526e141d5d081b195cdcc8185b5bdd5b9d608a1b6044820152606490fd5b919082039182116108be57565b634e487b7160e01b5f52601160045260245ffd5b908160209103126100d0575180151581036100d05790565b156108f157565b60405162461bcd60e51b815260206004820152600f60248201526e151c985b9cd9995c8819985a5b1959608a1b6044820152606490fd5b805182101561081e5760209160051b010190565b60ff5f5460a01c1661094a57565b63d93c066560e01b5f5260045ffd5b60026001541461096a576002600155565b633ee5aeb560e01b5f5260045ffd5b5f546001600160a01b0316330361098c57565b63118cdaa760e01b5f523360045260245ffdfea2646970667358221220c279fe543398b9c4ebc41e9729977d599defae790552c5ab121e563628818f7f64736f6c634300081c0033",
    "sourcePath": "/home/alishaheen/f0331/real_tech/hardhat/contracts/ICO.sol",
    "compiler": {
        "name": "solc",
        "version": "0.8.28+commit.7893614a"
    },
    "functionHashes": {
        "addTuples((address,uint256)[])": "792f841b",
        "addUserData((address,uint256)[])": "f2693cf0",
        "claim(uint256)": "379607f5",
        "claimLoop(uint256)": "59ab2ddc",
        "owner()": "8da5cb5b",
        "pause()": "8456cb59",
        "paused()": "5c975abb",
        "renounceOwnership()": "715018a6",
        "token()": "fc0c546a",
        "transferOwnership(address)": "f2fde38b",
        "unpause()": "3f4ba83a",
        "userAmount(address)": "e1ad418e",
        "usersData(uint256)": "8905c274"
    },
    "gasEstimates": {
        "creation": {
            "codeDepositCost": "503400",
            "executionCost": "infinite",
            "totalCost": "infinite"
        },
        "external": {
            "addTuples((address,uint256)[])": "infinite",
            "addUserData((address,uint256)[])": "infinite",
            "claim(uint256)": "infinite",
            "claimLoop(uint256)": "infinite",
            "owner()": "2447",
            "pause()": "29839",
            "paused()": "2331",
            "renounceOwnership()": "28130",
            "token()": "2533",
            "transferOwnership(address)": "28404",
            "unpause()": "27593",
            "userAmount(address)": "2596",
            "usersData(uint256)": "8917"
        }
    }
}